{
  "contractName": "Loja",
  "abi": [
    {
      "anonymous": false,
      "inputs": [
        {
          "indexed": true,
          "internalType": "address",
          "name": "payee",
          "type": "address"
        },
        {
          "indexed": false,
          "internalType": "uint256",
          "name": "etherAmount",
          "type": "uint256"
        }
      ],
      "name": "Deposited",
      "type": "event"
    },
    {
      "anonymous": false,
      "inputs": [
        {
          "indexed": true,
          "internalType": "address",
          "name": "payee",
          "type": "address"
        },
        {
          "indexed": false,
          "internalType": "uint256",
          "name": "etherAmount",
          "type": "uint256"
        }
      ],
      "name": "Withdrawn",
      "type": "event"
    },
    {
      "constant": true,
      "inputs": [
        {
          "internalType": "uint256",
          "name": "",
          "type": "uint256"
        }
      ],
      "name": "skins",
      "outputs": [
        {
          "internalType": "address",
          "name": "",
          "type": "address"
        }
      ],
      "payable": false,
      "stateMutability": "view",
      "type": "function"
    },
    {
      "constant": false,
      "inputs": [],
      "name": "deposito",
      "outputs": [],
      "payable": true,
      "stateMutability": "payable",
      "type": "function"
    },
    {
      "constant": false,
      "inputs": [],
      "name": "recolhimento",
      "outputs": [],
      "payable": false,
      "stateMutability": "nonpayable",
      "type": "function"
    },
    {
      "constant": true,
      "inputs": [],
      "name": "getBalanco",
      "outputs": [
        {
          "internalType": "uint256",
          "name": "",
          "type": "uint256"
        }
      ],
      "payable": false,
      "stateMutability": "view",
      "type": "function"
    },
    {
      "constant": false,
      "inputs": [
        {
          "internalType": "uint256",
          "name": "id",
          "type": "uint256"
        }
      ],
      "name": "compra",
      "outputs": [],
      "payable": true,
      "stateMutability": "payable",
      "type": "function"
    },
    {
      "constant": true,
      "inputs": [],
      "name": "getSkins",
      "outputs": [
        {
          "internalType": "address[6]",
          "name": "",
          "type": "address[6]"
        }
      ],
      "payable": false,
      "stateMutability": "view",
      "type": "function"
    }
  ],
  "bytecode": "0x608060405234801561001057600080fd5b50610485806100206000396000f3fe6080604052600436106100555760003560e01c8063160141a61461005a5780632c5188c6146100715780632db2ede51461009c5780637af327a0146101175780637cb0295014610121578063ba1219fa1461014f575b600080fd5b34801561006657600080fd5b5061006f6101a2565b005b34801561007d57600080fd5b5061008661023f565b6040518082815260200191505060405180910390f35b3480156100a857600080fd5b506100d5600480360360208110156100bf57600080fd5b8101908080359060200190929190505050610247565b604051808273ffffffffffffffffffffffffffffffffffffffff1673ffffffffffffffffffffffffffffffffffffffff16815260200191505060405180910390f35b61011f61027a565b005b61014d6004803603602081101561013757600080fd5b81019080803590602001909291905050506102ca565b005b34801561015b57600080fd5b506101646103ad565b6040518082600660200280838360005b8381101561018f578082015181840152602081019050610174565b5050505090500191505060405180910390f35b60004790503373ffffffffffffffffffffffffffffffffffffffff166108fc829081150290604051600060405180830381858888f193505050501580156101ed573d6000803e3d6000fd5b503373ffffffffffffffffffffffffffffffffffffffff167f7084f5476618d8e60b11ef0d7d3f06914655adb8793e28ff7f018d4c76d505d5826040518082815260200191505060405180910390a250565b600047905090565b6000816006811061025457fe5b016000915054906101000a900473ffffffffffffffffffffffffffffffffffffffff1681565b3373ffffffffffffffffffffffffffffffffffffffff167f2da466a7b24304f47e87fa2e1e5a81b9831ce54fec19055ce277ca2f39ba42c4346040518082815260200191505060405180910390a2565b343373ffffffffffffffffffffffffffffffffffffffff163110156102ee57600080fd5b600073ffffffffffffffffffffffffffffffffffffffff166000826006811061031357fe5b0160009054906101000a900473ffffffffffffffffffffffffffffffffffffffff1673ffffffffffffffffffffffffffffffffffffffff161461035557600080fd5b61035d61027a565b336000826006811061036b57fe5b0160006101000a81548173ffffffffffffffffffffffffffffffffffffffff021916908373ffffffffffffffffffffffffffffffffffffffff16021790555050565b6103b561042e565b6000600680602002604051908101604052809291908260068015610424576020028201915b8160009054906101000a900473ffffffffffffffffffffffffffffffffffffffff1673ffffffffffffffffffffffffffffffffffffffff16815260200190600101908083116103da575b5050505050905090565b6040518060c0016040528060069060208202803883398082019150509050509056fea265627a7a7231582084d4865a6d72be6007be0a31df2e7344d035fe8edf706932f763427606af08c964736f6c63430005100032",
  "source": "pragma solidity ^0.5.0;\n\ncontract Loja {\n\n    address[6] public skins;\n\n    event Deposited(address indexed payee, uint256 etherAmount);\n    event Withdrawn(address indexed payee, uint256 etherAmount);\n\n    function deposito() public payable {\n        emit Deposited(msg.sender, msg.value);\n    }\n\n    function recolhimento() public {\n        uint256 balance = address(this).balance;\n        msg.sender.transfer(balance);\n        emit Withdrawn(msg.sender, balance);\n    }\n\n    function getBalanco() public view returns (uint256) {\n        return address(this).balance;\n    }\n\n    function compra(uint id) public payable {\n        require(msg.sender.balance >= msg.value);\n        require(skins[id] == address(0));\n        deposito();\n        skins[id] = msg.sender;\n    }\n\n    function getSkins() public view returns (address[6] memory) {\n        return skins;\n    }\n}",
  "sourcePath": "/home/gabriel/Desktop/b/contracts/Loja.sol",
  "compiler": {
    "name": "solc",
    "version": "0.5.16+commit.9c3226ce.Emscripten.clang"
  },
  "schemaVersion": "3.4.3",
  "updatedAt": "2021-12-01T20:56:36.550Z",
  "networkType": "ethereum",
  "devdoc": {
    "methods": {}
  },
  "userdoc": {
    "methods": {}
  }
}